:020000040000FA
:10000000882C002039030000410300001D2200005D
:100010004503000047030000490300000000000002
:100020000000000000000000000000004B03000082
:100030004D030000000000004F0300008535000064
:10004000530300005503000057030000590300004C
:100050008D1800005D0300005F030000BD3000004C
:1000600059220000650300006703000069030000D7
:100070006B0300006D0300006F03000071030000BC
:1000800073030000750300007703000011390000BE
:100090007B0300007D0300007F030000810300005C
:1000A000830300008503000087030000890300002C
:1000B0008B0300008D0300002D1900009103000048
:1000C0009303000095030000CD3000009903000069
:1000D0009B030000712200009F030000A1030000A9
:1000E000A3030000A503000000000000A703000018
:1000F000A9030000AB030000AD030000AF03000044
:10010000B1030000B3030000B5030000B703000013
:100110000000000000000000B9030000BB03000065
:10012000BD030000DD300000ED300000C30300001F
:10013000C5030000C7030000C9030000CB03000093
:1001400000000000000000000000000000000000AF
:1001500089220000A1220000D1030000D303000087
:10016000000000000000000000000000000000008F
:10017000000000000000000000000000000000007F
:10018000000000000000000000000000000000006F
:10019000000000000000000000000000000000005F
:1001A000000000000000000000000000000000004F
:1001B000D5030000D7030000D9030000DB030000D3
:1001C000DD030000DF030000E1030000E3030000A3
:1001D000E5030000E7030000E9030000EB03000073
:1001E000ED030000EF030000F10300000000000039
:1001F00000000000F3030000F5030000F703000017
:10020000F9030000FB0300000000000000000000F4
:10021000FD030000FF0300000104000003040000D0
:100220000504000007040000090400000B0400009E
:100230000D0400000F04000011040000130400006E
:100240001504000017040000190400001B0400003E
:100250001D0400001F04000021040000230400000E
:1002600025040000270400002904000000F002F823
:1002700000F052F80AA090E8000C82448344AAF1EE
:100280000107DA4501D100F047F8AFF2090EBAE8EC
:100290000F0013F0010F18BFFB1A43F001031847BA
:1002A0002C5C00004C5C0000103A24BF78C878C178
:1002B000FAD8520724BF30C830C144BF04680C606C
:1002C000704700000023002400250026103A28BFB4
:1002D00078C1FBD8520728BF30C148BF0B607047B8
:1002E000662904F05C83692900F0F880642900F035
:1002F000F580752900F0F280002070471FB504F0EA
:1003000044FB00F07DFC04000020002103F0E0FF2E
:10031000E0601FBD10B510BD00F076FD1146FFF77F
:10032000EDFF03F00BFD00F094FD03B4FFF7F2FFC7
:1003300003BC00F0D7FD00003F4880473F4800471E
:10034000FEE7FEE7FEE7FEE7FEE7FEE7FEE7FEE785
:10035000FEE7FEE7FEE7FEE7FEE7FEE7FEE7FEE775
:10036000FEE7FEE7FEE7FEE7FEE7FEE7FEE7FEE765
:10037000FEE7FEE7FEE7FEE7FEE7FEE7FEE7FEE755
:10038000FEE7FEE7FEE7FEE7FEE7FEE7FEE7FEE745
:10039000FEE7FEE7FEE7FEE7FEE7FEE7FEE7FEE735
:1003A000FEE7FEE7FEE7FEE7FEE7FEE7FEE7FEE725
:1003B000FEE7FEE7FEE7FEE7FEE7FEE7FEE7FEE715
:1003C000FEE7FEE7FEE7FEE7FEE7FEE7FEE7FEE705
:1003D000FEE7FEE7FEE7FEE7FEE7FEE7FEE7FEE7F5
:1003E000FEE7FEE7FEE7FEE7FEE7FEE7FEE7FEE7E5
:1003F000FEE7FEE7FEE7FEE7FEE7FEE7FEE7FEE7D5
:10040000FEE7FEE7FEE7FEE7FEE7FEE7FEE7FEE7C4
:10041000FEE7FEE7FEE7FEE7FEE7FEE7FEE7FEE7B4
:10042000FEE7FEE7FEE7FEE7FEE7000004480549B9
:10043000034A054B70470000253800006D0200009C
:1004400088220020882C0020882200200FB4044934
:1004500010B503AA029800F0C1FB10BC5DF814FBB4
:10046000E00000200FB41CB5074B06AA7B44694688
:100470000090059800F099FB0020694600F0A8FB69
:100480001CBC5DF814FB00006107000070B5044659
:1004900085690068C10601D5302600E02026C00726
:1004A00007D070BDD4E9012130469047206A401C36
:1004B00020626D1EF6D570BD70B504468569007862
:1004C000C00707D170BDD4E9012120209047206AE0
:1004D000401C20626D1EF6D570BD00002DE9F04174
:1004E0000646002410687529314616A510D0AFF3D2
:1004F0000080002802DA404213A507E031688A072D
:1005000001D512A502E0490704D511A5012401E097
:10051000AFF3008000210A2206F1240709E0B0FBB6
:10052000F2FCB0FBF2F302FB1C00303078541846AA
:10053000491C0028F3D123462A463046BDE8F04145
:1005400000F0C6B8000000002D0000002B000000E5
:10055000200000002DE9F05F894604464FF0000AB4
:10056000DFF824B1FB44C0F820A02046E1688847AA
:1005700000287DD0252806D0D4E901219047206AA3
:10058000401C2062F1E700255F462046E16888476D
:100590002028064607DB312E05D2B81910F8200CAA
:1005A00008B10543F1E7A80701D525F00405C4F813
:1005B0001CA00027C4F818A02A2E09D0304603F04A
:1005C00015FA38B304EB8708303EC8F8186019E014
:1005D00059F8041B204604EB87029161E1688847C3
:1005E000012F064618D1E069002820DA25F0200501
:1005F0001DE0D8F8180000EB800006EB4000303812
:10060000C8F818002046E1688847064603F0EEF96E
:100610000028EED1012F0AD02E2E08D12046E16805
:1006200088477F1C0646022F45F02005C4DBA069E1
:10063000002803DA404245F00105A061E80701D037
:1006400025F01005A6B1A6F14100192802D82036E0
:1006500045F400654A463146204625604D46FFF781
:100660003FFE60B1012807D0ED1D25F0070000E036
:1006700007E000F1080978E705F1040975E730465D
:100680007AE7206ABDE8F09FBC58000010B5431C13
:1006900002E010F8011B71B18107FAD14FF001326D
:1006A00002C88C1A8C4314EAC211F9D0C01A0A0687
:1006B00003D0C01E10BDC01A10BD0A0401D0801E98
:1006C00010BD0902FCD0401E10BD70477047704736
:1006D0002DE9F0470D4699469246044600F124085C
:1006E0000168880604D5E06921F01001216000E06E
:1006F0000120A84201DD471B00E00027A1697A190B
:1007000002EB0900081AA0612078C00602D4204636
:10071000FFF7BCFE002608E0D4E901211AF8060024
:100720009047206A401C761C20624E45F4DB2078FE
:10073000C0060AD52046FFF7A9FE06E0D4E901214C
:1007400030209047206A401C2062381EA7F1010724
:10075000F4DC07E0D4E9012118F805009047206A8D
:10076000401C2062281EA5F10105F3DC2046FFF79E
:10077000A3FE2078000602D50220BDE8F087012004
:10078000FBE770472DE9FF4F0C461E464FF0FF3741
:100790008BB0D2E90001DDF860800A908A46C1F38F
:1007A0000A5505B93D46002108464FF00000BAF150
:1007B000000F00F4400005DA00EB80004FF4400128
:1007C00001EA50004FEA9059B9F1010F00DDB94636
:1007D0000A9850EA4A000ED044F61050A5F2FF35B0
:1007E00045432F14B8F1000F1ED07542291E1EDD9F
:1007F000C9F100021CE0B8F1010F4FF0000001D078
:10080000302103E0F24305E02154401CB042FBDB01
:1008100030460022002121540B99C1F80880C1E91B
:1008200000200FB0BDE8F08FBD1B6D1CDEE74A460F
:1008300000DA694206A800F06DFA06AB93E80700FB
:1008400003AB83E8070050460A9900F052FB8DE89D
:100850000700A0F500501F3800900398002D0ADD16
:1008600042F21F014A460844002303A90390684648
:1008700000F0BBFD09E0A0F500504A461F380023F8
:1008800003A90390684600F0C5FD8DE80700000449
:10089000000C03D04FF0FF30410800E01046B8F1E3
:1008A000000F03D00022009215461EE0751E05D4ED
:1008B00000F0AAF9303262556D1EF9D5B346012217
:1008C000084302D000227F1C04E02078302801D1A8
:1008D00000227F1E002A099784D01DE0112D07DA1F
:1008E00000F092F9303262556D1C50EA0102F5D1E8
:1008F000084302D00098C8B10EE00021681E05E050
:10090000235C625C63542254401E491C8142F7DB25
:10091000AB46A81B401E0990002004F80B000B9862
:10092000099AC0F80880C0E9002B7AE711264FF039
:10093000000857E72DE9F04F88460446D21D22F003
:10094000070191B0D1E90001CDE90A0103F010F8E7
:1009500002460B98C00F01D02D2007E020688107C8
:1009600001D52B2002E0202101EAC000032A0990D2
:1009700001D0072A05DB03464146204600F08AF9EC
:100980000BE12078800601D5E06900E00620B8F18F
:10099000650F814606D0B8F1660F18D0B8F1670F21
:1009A00070D131E00020B9F1110F009001DB11236B
:1009B00001E009F101030AAA01A90CA8FFF7E2FE70
:1009C000DDE90C70002609F10105834647E00120AE
:1009D0004B4600904FF000470AAA01A90CA8FFF768
:1009E000D1FEDDE90DB00C995D46002610B909F184
:1009F00001000D18B9EB050003D4C0F1FF3609F171
:100A00000105A5EB09002BE0B9F1010F01DA4FF068
:100A100001090020B9F1110F0090484601DD1123B2
:100A200000E003460AAA01A90CA8FFF7ABFEDDE926
:100A30000C704D4600268346207800070AD4AB454B
:100A400000DA5D4601A8012D04DD411911F8011CF1
:100A5000302907D04F4502DA17F1040F04DA0120DC
:100A600082460FE06D1EEEE7002F02DCED1B3E44D8
:100A700003E0781CA84200DD7D1CB81B00F1010AD0
:100A80004FF000472078000703D4AA4501DB4FF060
:100A9000FF3A0021B7F1004F0DF143088DF84310E4
:100AA00024D002202B23002F01DA7F422D230A219C
:100AB000021EA0F1010000DC5FB197FBF1FC97FB87
:100AC000F1F201FB1C7C17460CF1300C08F801CD4B
:100AD000EEE7A8F1010003702188090501D5452141
:100AE00000E06521A0F1010800F8011C09980FA998
:100AF000A1EB0807FF1D00B10120411901EBEA70CD
:100B0000A1693844081A401EA0612078C00602D4AA
:100B10002046FFF7BBFC099828B1D4E90121904792
:100B2000206A401C20622078C00622D52046FFF7AC
:100B3000ADFC1EE0002E04DBB34502DD01A8805DA4
:100B400000E03020D4E901219047206A401C206257
:100B5000761CAAF101005FEA000A0AD100F050F801
:100B6000C0680168405CD4E901219047206A401CBC
:100B70002062281EA5F10105DCDC07E0D4E9012193
:100B800018F8010B9047206A401C2062381EA7F11C
:100B90000107F3DC2046FFF78FFC032011B041E68C
:100BA00001694A1C02610878704700B58FB0CDE931
:100BB00001310021059105497944CDE90310114621
:100BC0006846FFF7C7FC0FB000BD0000E5FFFFFF60
:100BD0000A6802F8010B0A6070470000074B70B505
:100BE0000D467B44FFF7E1FF0446284600F004F978
:100BF00010B14FF0FF3070BD204670BD152E0000C3
:100C0000004870474422002030B5B0F10A024FEA94
:100C1000900E71F100034EEA817EB0EB0E0061EBA5
:100C200091014FEA101E4EEA017E10EB0E0041EBDF
:100C300011114FEA102E4EEA016E10EB0E0041EB3F
:100C400011214FEA104E4EEA014E10EB0E0041EB1F
:100C50001141401841F100014FEAD00040EA4170D3
:100C60004FEAD10110EB80054FEA810444EA907409
:100C700044EB01046D1944EB0404521BA3414FF0F3
:100C8000000348BF0A3200D530BD401C41F10001CD
:100C900030BD00002DE9F0411F46044603260168DF
:100CA000072A01F4006004DB08B116A505E016A5CB
:100CB00003E008B115A500E015A521F010002060A3
:100CC000A069C01EA0610FB1401EA0612046FFF7C1
:100CD000DDFB4FB1D4E9012138469047206A401C22
:100CE0002062C01C206206E0206AFAE7D4E90121F4
:100CF00015F8010B9047761EF8D22046FFF7DCFB73
:100D0000BDE8F0814E414E006E616E00494E4600D6
:100D1000696E66002DE9F047814616468AB035486F
:100D200078440DC88DE80D0032487844801C03AC2F
:100D30000DC884E80D0041F69B300844372190FB34
:100D4000F1F290FBF1F5A5F1800501FB12041B3CCB
:100D500002D56442012000E00020DFF898A0804620
:100D60000027FA44AAF1BE0A0EE0E0070AD0324694
:100D7000684607EB470101230AEB810100F04AFBBB
:100D80008DE8070064107F1C002CEED1194F7F44C2
:100D9000AE3F19E0E80715D007EB04100DF1180A73
:100DA00090E80E008AE80E00C068F04201D1981960
:100DB00008903246012306A903A800F02BFB03ABE1
:100DC00083E807006D10641C002DE3D14FF0010390
:100DD00032466946B8F1000F03A802D000F005FBC7
:100DE00001E000F017FBC9E90001C9F808200AB0CA
:100DF000BDE8F08790510000007B00F08000704754
:100E000000487047242200207546FFF7F9FFAE46E0
:100E100005006946534620F00700854618B020B506
:100E2000FFF704FBBDE820404FF000064FF000073D
:100E30004FF000084FF0000B21F00701AC46ACE882
:100E4000C009ACE8C009ACE8C009ACE8C0098D46EF
:100E5000704710B50446AFF300802046BDE810404F
:100E6000FFF763BA4FF0013C50F8042B51F8043BF4
:100E70009A4221D1A2EB0C03934313EACC1317D16E
:100E800050F8042B51F8043B9A4215D1A2EB0C0305
:100E9000934313EACC130BD150F8042B51F8043BC5
:100EA0009A4209D1A2EB0C03934313EACC13DBD093
:100EB0004FF00000704700BFD01A01BAB1FA81F1BB
:100EC00001F0180122FA01F0CB40C1F12001DBB2A0
:100ED000C0B2C01A2CFA01F3D11A914311EAC3111E
:100EE000E6D1704701491820ABBEFEE7260002009C
:100EF00070475FEA400C08BF91F0000F4FEA8C2367
:100F00004FEAC12243EA51514FEA1C5018BF00F585
:100F1000F0404FEA300018BF41F000415FEA6C5CDE
:100F200000F02980BCF1FF3F08BF40F080407047CF
:100F3000130C06BF12044FF0100C4FF0000C130EF0
:100F400004BF12020CF1080C130F04BF12010CF1C4
:100F5000040C930F04BF92000CF1020CD30F04BFDA
:100F600052000CF1010C11464FF00002A0F11F00DD
:100F7000A0EB0C00704711F0004F08BF704731F034
:100F800000413FF4D5AF0B0C06BF09044FF0100C25
:100F90004FF0000C0B0E04BF09020CF1080C0B0FF4
:100FA00004BF09010CF1040C8B0F04BF89000CF184
:100FB000020CCB0F04BF49000CF1010CCCF1200353
:100FC000A0EB0C0022FA03F302FA0CF241EA03014F
:100FD00000F10100704720F07F4C80EA030023F00D
:100FE0007F47ACEB070303F57C5300F0004003F1AF
:100FF000FF032DE980494FEA154B09B44FEA14432A
:1010000025EA0B4E24EA03480FF2042606EB1327C9
:1010100049083E785FEA320203FB0667C7F500071E
:1010200007FB06F64FEA54374FEAD64606F10206AA
:1010300007FB066CCCF1005C4FEA1C472CEA074C1E
:1010400007FB06F40CFB06F504EB15464FEA961673
:1010500034BF00204FF000404FEAD13706FB07FCB9
:101060004FEA1C4C0CFB0BF7D21B03FB0CF761EB9C
:1010700007010CFB0EF7B0EB074072EB17420CFBBD
:1010800008F734BFA2EB0742B2EB074261EB17410E
:101090004FEA0C444FEA910706FB07FC4FEA1C4C51
:1010A0000CFB0BF7B0EBC74072EB573203FB0CF7AE
:1010B00034BFA2EBC742B2EBC74261EB57310CFB26
:1010C0000EF7B0EBC70072EB57720CFB08F734BF9A
:1010D000A2EBC702B2EBC70261EB5771039F4FEA65
:1010E000816141EA921104EBCC044FEAD1374FEA17
:1010F000826206FB07FC42EA90124FEA80604FEAE8
:101100001C4C0CFB0BF7D21B03FB0CF761EB07012C
:101110000CFB0EF7B0EB074072EB17420CFB08F725
:1011200034BFA2EB0742B2EB074261EB17414FEA33
:101130008C554FEA910704EB9C2406FB07FC4FEA11
:101140001C4C0CFB0BF7B0EBC74072EB573203FBA8
:101150000CF734BFA2EBC742B2EBC74261EB573189
:101160000CFB0EF7B0EBC70072EB57720CFB08F7E5
:1011700034BFA2EBC702B2EBC70261EB577115EBAC
:101180004C254FEA816141EA92114FEA82624FEAAF
:10119000D13742EA901206FB07FC44F100044FEA03
:1011A00080604FEA1C4C0CFB0BF7D21B03FB0CF7C7
:1011B00061EB07010CFB0EF7B0EB074072EB174237
:1011C0000CFB08F734BFA2EB0742B2EB074261EB1E
:1011D000174115EB1C154FEA813141EA92414FEA64
:1011E000823242EA90424FEA80304FEA0C7644F174
:1011F000000448EA03434EEA0B484FF0000EB2EBFE
:10120000080C71EB030724BF624639464EEB0E0E05
:101210004FF0000B0018524149414BEB0B0BB2EB66
:10122000080C71EB03077BF1000B24BF62463946C3
:101230004EEB0E0E4FF0000B0018524149414BEBA4
:101240000B0BB2EB080C71EB03077BF1000B24BF17
:10125000624639464EEB0E0E51EA020718BF46F0C1
:10126000010616EB0E7655F1000254F1000103D58C
:10127000BDE88901BDE80088BDE88901BDE80048F6
:10128000B619524141EB0101A3F10103704780807F
:101290007F7E7D7C7B7A79787776767574737271D0
:1012A00071706F6E6E6D6C6C6B6A6A696868676688
:1012B00066656464636362616160605F5F5E5E5D1A
:1012C0005D5C5C5B5B5A5A5959585857575656558E
:1012D00055555454535352525251515050504F4FF0
:1012E0004F4E4E4D4D4D4C4C4C4B4B4B4A4A4A4940
:1012F0004949484848474747474646464545454483
:101300004444444343434342424242414141002B0F
:101310009C4630D477002BD01CB54FEA370703B476
:101320004FF010004FF01001BAF1000F06D0BCF1E1
:10133000000FDCBF40F0080040F008014FF0000053
:101340000FBCBDE810400BF1010BBBF1010F08BF52
:101350005FEA170722BF12F1010211F101014FF0FC
:10136000004143F1000300F0004043EA00007047F1
:10137000F9D35708D0E746EA064613F1400F4FEA83
:1013800016461FDD13F1200FDFBF16430A4600216A
:1013900020335B42BED0C3F1200746EA064602FA7C
:1013A00007F74FEA164646EA0706C3F1200722FA76
:1013B00003F201FA07F721FA03F14FF0000342EAC2
:1013C0000702A7E746EA020646EA06464FEA16463D
:1013D00046EA0106BCBF46EA0646360C4FF000035B
:1013E0004FF000024FF0000194E72DE9804C9A463F
:1013F000934670B491E8380007C831EA400C48BF02
:1014000034EA430C03D5FFF7E6FDFFF780FFF0BC9D
:10141000BDE8008C2DE9804C9A46934670B491E863
:10142000380007C810F0804F08BF13F0804F03D179
:1014300000F005F8FFF76BFFF0BCBDE8008C20F072
:101440007F4780EA030023F07F4C07EB0C03A3F5F2
:101450007C5300F00040A3F1FE0392F0000F00F077
:10146000B38095F0000F00F077802DE901494FEA35
:1014700011404FEA144621EA004800FB06FC24EA2A
:10148000064708FB06F607FB08F800FB07F718EB12
:1014900006484CEB164C4FEA124B18EB07484FEA44
:1014A00015464CEB174022EA0B4E0BFB06FC25EAD7
:1014B00006470EFB06F607FB0EFE0BFB07F71EEBBF
:1014C000064E4CEB164C4FF000061EEB074E4CEB55
:1014D000174B18EB0B0840F1000018EB0E0B58EB04
:1014E000000840F100008F1A4FF000013CBFC943D3
:1014F000661B14BFB5EB040C00213CBFC943F61BAF
:101500004FEA17444EEA8E0E27EA04454FEA1C477D
:1015100004FB07622CEA074C05FB07F70CFB05F6FA
:1015200004FB0CFC16EB074642EB174216EB0C468D
:1015300042EB1C421BEB060658EB0202414146EA15
:101540009E0601D5BDE80189B619524141EB010162
:10155000A3F10103BDE801894FEA14454FEA1147A1
:1015600024EA054621EA074C05FB07F406FB07F7CA
:101570000CFB06F105FB0CFC11EB074144EB174497
:101580004FEA124711EB0C4144EB1C4422EA074C92
:1015900005FB07F206FB07F70CFB06F605FB0CFC48
:1015A00016EB074642EB174216EB0C4642EB1C4586
:1015B0006A1854F1000148BF7047B619524141EB17
:1015C0000101A3F10103704795F0000F37D04FEAF6
:1015D00011424FEA144721EA024624EA074C02FB73
:1015E00007F106FB07F70CFB06F402FB0CFC14EBFF
:1015F000074441EB17414FEA154714EB0C4441EB0C
:101600001C4125EA074C02FB07F506FB07F70CFB1C
:1016100006F602FB0CFC16EB074645EB174516EBEE
:101620000C4645EB1C42121951F1000148BF7047AE
:10163000B619524141EB0101A3F1010370474FEA92
:1016400014454FEA114724EA054621EA074C05FBF9
:1016500007F106FB07F70CFB06F24FF0000605FB4F
:101660000CFC12EB074241EB174112EB0C4251EB21
:101670001C4148BF7047921841EB0101A3F10103DF
:1016800070470000F0B52DED068B83B005460C4683
:10169000384805603820207106200090217901AB80
:1016A00000223448006800F0D3FE0120324908606F
:1016B00000BF314800680128FBD09DF805000007F5
:1016C000000B9DF8061040EA01209DF8071040EA43
:1016D0002116304602F0ECFE41EC190B9FED270B72
:1016E00053EC102B02F0F8FE41EC180B02F006FE52
:1016F000E06094ED030ADFED230AB4EEE00AF1EEB8
:1017000010FA03DD9FED200A84ED030A94ED030A2D
:10171000B5EEC00AF1EE10FA03D29FED1C0A84ED7B
:10172000030A9DF807000007000B9DF8081040EA27
:1017300001209DF8091040EA0107384602F0B8FE82
:1017400041EC1A0B9FED120B53EC102B02F0C4FE70
:1017500041EC190B9FED100B53EC102B02F0BAFF6C
:1017600041EC180B02F0CAFDA06003B0BDEC068B83
:10177000F0BD0000E8000020500000209E0C8E927A
:1017800057E7183F0000C842CDCCC7420000000018
:101790007978CF81E508293F00000000000049402A
:1017A0007CB505460C460E48056038202071332074
:1017B0008DF8040000208DF80500022000902179AA
:1017C00001ABAC220648006800F060FE012005492C
:1017D000086000BF034800680128FBD07CBD000002
:1017E000E8000020500000207CB505460C460E485D
:1017F00005603820207108208DF8040000208DF845
:10180000050002200090217901ABE1220648006822
:1018100000F03CFE01200549086000BF0348006855
:101820000128FBD07CBD0000E80000205000002013
:1018300000F0020149B11249096831B9114909683A
:101840000F4A11600221104A116000F0040149B1F1
:101850000B49096831B90B490968094A116004212B
:10186000094A116000F0080149B10549096831B918
:1018700004490968024A11600821034A116070474F
:10188000980000209C0000201C44024010B5034832
:1018900004682046FFF7CCFF10BD0000144402404E
:1018A00000F0010159B11A494978012902D00121FA
:1018B000174A51700021174A1160174A116000F051
:1018C0001001F1B11549096800291ADC9621134A63
:1018D00011600F49497819B10D494978022909D198
:1018E00000210F4A11600A4A51700E490988491CAB
:1018F0000C4A118006494978012902D10221044A83
:1019000051700949096841F01101074A1160704797
:1019100064000020B0000020A00000207C00002017
:10192000800000207A0000201C54024010B50348BB
:1019300004682046FFF7B4FF10BD000014540240B5
:101940000149C86070470000EC00002001490861AF
:1019500070470000EC0000202DE9F0412DED028BD6
:10196000A2B08046FF2000F051F96F4800F002FC61
:10197000FF2000F005FC08231A466C496CA000F01B
:10198000A5FB6F4800F0F6FB1C2308226FF07F4197
:101990006CA000F09BFB654800F0DAFB9E237F22E1
:1019A0003721002000F064F9684800F0E3FB684844
:1019B00090ED020A10EE101A084602F075FF41EC95
:1019C000180B53EC182B63A102A8FEF74BFD3C2328
:1019D0000A22002102A800F079FB5D4890ED030A7D
:1019E00010EE101A084602F05FFF41EC180B53ECA2
:1019F000182B5CA102A8FEF735FD48230A2200211E
:101A000002A800F063FB5B4802885BA102A8FEF716
:101A100029FD54230A228B2102A800F057FB5948C4
:101A2000407820B958A102A8FEF71CFD10E05548E7
:101A30004078012804D157A102A8FEF713FD07E062
:101A400050484078022803D155A102A8FEF70AFDAC
:101A500060230A228B2102A800F038FB384800F0EE
:101A600089FB5248026852A102A8FEF7FBFC6C23D6
:101A70000F22002102A800F029FB5148006820B97C
:101A800050A102A8FEF7EEFC07E04D4800680128CF
:101A900003D150A102A8FEF7E5FC78230F22002114
:101AA00002A800F013FB4F4800F052FB9F237F2257
:101AB0008C21002000F0DCF81B4800F05BFB49485B
:101AC00000F05EFB484800683C21B0FBF1F201FBEE
:101AD000120445480068B0FBF1F0B0FBF1F201FBE5
:101AE0001205414800684FF46161B0FBF1F0182124
:101AF000B0FBF1F201FB12063C4800683C49B0FB28
:101B0000F1F733463A463BA102A8CDE90054FEF76F
:101B1000A9FC8F230422002102A800F0D7FA22B0EA
:101B2000BDEC028BBDE8F0816851000000FFFF00B2
:101B300053454D32333036205355323100000000CA
:101B4000105800004D4F5249000000005C5D00003D
:101B5000B421002054454D503A2025342E326620C1
:101B60004300000048554D443A2025332E3166206D
:101B7000252500007A000020434F554E543A202579
:101B800064000000640000204D4F4445203A20537B
:101B9000455400004D4F4445203A20444F574E00D5
:101BA0004D4F4445203A2053544F5000B000002080
:101BB0005475726E20416E676C653A20256900008D
:101BC000B4000020526F746174696F6E3A204357FD
:101BD00000000000526F746174696F6E3A204143D7
:101BE00057000000FFFFE00034000020E400002068
:101BF00040420F00253032754D487A20253032752D
:101C00003A253032753A2530327500004FF478416C
:101C10004FF4FC6201EA102102EA50121143C0F3B2
:101C2000C4000143114810B4C2682AB94FF47F427E
:101C300002EA012242EA11218268D2E90BC4936CC4
:101C4000906B04FB1C339C45C8BF1846401E3CBF2C
:101C500010BC7047936B8342DCBF10BC7047536B62
:101C600023F81010401EF5D210BC7047EC00002085
:101C700070B5DFF850C09042BCF80440A5B2D4BFA4
:101C8000994270BDDCF80C40002C08BF6DBADCF83E
:101C900008C00024CCF82400CCE90402CCE90613E7
:101CA000101A591A401C491C00FB01F6002ED8BF1F
:101CB00070BD284600F076FA00281CBF641CB442B0
:101CC000F7DB70BDEC00002070B50346154891426B
:101CD000B0F804C01FFA8CF5C8BF70BDD0F814C0AE
:101CE000BCF1000F08BF70BDC468002C08BF6DBAFE
:101CF00003EB0C048068641E4162103080E81E0013
:101D0000501A401C00FB0CF60024002ED8BF70BDFA
:101D1000284600F047FA00281CBF641CB442F7DBD9
:101D200070BD0000EC00002070B52A4C4FF000059B
:101D3000A06890F84C1011F0010F0BD105620563FB
:101D40000560026CC0E90125826A41F00301C260AE
:101D500080F84C10426C816891420DDB056290F86E
:101D60004C1021F0010180F84C102069002808BFB8
:101D700070BDBDE87040004790F84C00C0F34000D3
:101D8000FFF7EAFDA06890F84C1021F0020180F8FE
:101D90004C100560826A816811448160C3681A44EE
:101DA000C260026B521C0263426C91420ADB891AC8
:101DB000036C826B406BBDE8704001FB132149004E
:101DC00000F0F0BB816B406BBDE87040490000F053
:101DD000E9BB0000EC00002010B4019CC0E9101227
:101DE0004A43826490F84C20C46322F0040C6208D9
:101DF00092FBF1F24363826202FB01F383630023EF
:101E0000C0E90031C0E9023203632CF0010380F81D
:101E10004C305143C1620249886010BC70470000D9
:101E2000EC0000202DE9FF4F9B464FF478424FF421
:101E3000FC6302EA112203EA51131A43C1F3C401FD
:101E4000114391B0A04A0D91A0F12003118B5E2B9C
:101E500089B20E9111680A9111460968D1F8C4102F
:101E60009DBF0A9B03EB400030F83C0C0A9888BFEA
:101E7000008C0E18002430780225A146A2460228C4
:101E800040F31E8190480BEB0A018068406C814250
:101E900000F316810A98007810B1012832D047E08B
:101EA00031780027A94213DD705D09F118029040D6
:101EB000B0FA80F00828C8BFC9F10800074481447F
:101EC000B9F1080F04D16D1C4FF00009A942EBDCF9
:101ED0004FF00008A9422BDD705D09F11802904017
:101EE000C043B0FA80F00828C8BFC9F10800804498
:101EF0008144B9F1080F1BD16D1C4FF00009A942B4
:101F0000EADC15E0705D20B1070900F00F086D1CD8
:101F10000EE07019407810F0800F05D040060027C1
:101F20004FEA9058AD1C5CE0C7004FF00008AD1CB4
:101F3000002F56D0644B0BEB0A0099684A6C824222
:101F40004FDB012F26DD727804F1010C624521DDA3
:101F500004EB070C9445D4BF3A46121B02920028AA
:101F600014DB91F84C1011F0040F0FD056490E9A63
:101F700049680B9154494A601399029A21440A44D2
:101F8000521EFFF7A1FE50480B99416002983F1A7C
:101F900004441EE0139A121919D4D1F840C0944594
:101FA000A8BF002813DB91F84CC01CF0040F0ED022
:101FB0004A620A61C1E90520C861D868002803BFE8
:101FC0000E9840BA0F900F9800F0ECF8C8B3641C5C
:101FD0007F1E7078A04204BF00240AF1010A002F7E
:101FE000A8D1B8F1000F67D0374A0BEB0A0091680F
:101FF0004B6C834260DBB8F1010F27DD737804F18D
:10200000010C634522DD04EB08019942D4BF41462F
:10201000191B029100280FDB2B492B4A49680B91B1
:102020000D9951601399029A21440A44521EFFF7F8
:102030004BFE25480B9941600298A8EB0008044428
:1020400031E0FFE715B00120BDE8F08F139B1B19AD
:1020500026D4D1F840C09C45A8BF002820DB0B93B4
:1020600096F801C0139B0AF1010E634404F1010CC0
:102070009C4433785B449E440B9B4B620B9BC1F8A2
:102080001CE00B61C1E905C00D980F90D0680028D5
:1020900003BF0D9840BA0F900F9800F083F878B105
:1020A000641CA8F101087078A04204BF00240AF162
:1020B000010AB8F1000F97D13078A8423FF7E2AE9D
:1020C000707815B0BDE8F08FEC0000202DE9F05FCE
:1020D0001C4617468B460646FEF7D8FADFF86CA07A
:1020E000C1B23D46DAF80080B1F1010938BFBDE860
:1020F000F09F00BF16F8010B0D2808BF3D4620D009
:102100000A2804BF98F8020004441AD0DAF808102C
:1021100098F801300A6CD21AAA4203DC98F802201F
:102120003D461444C968A142B8BFBDE8F09F2346AC
:102130002A465946FFF776FE002814BF0544BDE83D
:10214000F09FB9F10109D5D2BDE8F09FEC00002065
:102150004FF478414FF4FC6201EA102102EA501278
:102160001143C0F3C40008430149486070470000B0
:10217000EC0000200149086070470000EC000020DE
:102180004FF478414FF4FC6201EA102102EA501248
:102190001143C0F3C400084301498861704700003F
:1021A000EC0000201C4989688B68CA69934204DCF2
:1021B000D1F80CC08A69624501DD0020704710B477
:1021C000D1F800C04C69A44512DCD1F810C04C68AD
:1021D000A4450DDC93420EDCD21A0B6C02FB03C249
:1021E0000A628B6B9342C4BF4B6B23F8120002DC74
:1021F00010BC00207047D1E90402904205DB486A18
:10220000401E08618869401C88610869401C08619B
:1022100010BC012070470000EC00002009A000BFA6
:1022200000BFBFF34F8F0A48006800F4E06009491F
:102230000843001D06490860BFF34F8F00BF00BF71
:1022400000BFFDE748617264206661756C740A0026
:102250000CED00E00000FA0510B50448006818B164
:102260000249086801F0D1FB10BD000014220020D3
:1022700010B50448406818B10249486801F0C5FB30
:1022800010BD00001422002010B50448806818B169
:102290000249886801F0B9FB10BD0000142200203B
:1022A00010B50448C06818B10249C86801F0ADFB18
:1022B00010BD000014220020416270477CB5054625
:1022C0000C46002001901748056020202070002057
:1022D0008DF8040001200090217801AB0A221148FA
:1022E000006800F0D3F801200F49086000BF0E48D5
:1022F00000680128FBD000208DF804008DF805004F
:10230000022001AB0022202100900648006800F066
:10231000BDF801200449086000BF03480068012897
:10232000FBD07CBDE800002050000020F0B5044642
:102330000D46164635B1012D07D0022D08D0032DCC
:102340000CD108E0374908220BE03749252208E084
:102350003649442205E03649452202E04FF0FF307D
:10236000F0BD00BF21606260324840F82540086A35
:1023700040F010000862052E2CD2DFE806F0030BB7
:10238000131B23002C4800682C4FB0FBF7F0401EB5
:10239000C3B222E028480068294FB0FBF7F0401E86
:1023A000C3B21AE024480068264FB0FBF7F0401E85
:1023B000C3B212E020480068234FB0FBF7F0401E84
:1023C000C3B20AE01C480068204FB0FBF7F0401E83
:1023D000C3B202E04FF0FF30C2E700BFC86803F0AD
:1023E0007F073843C860C86820F08000C86008696B
:1023F00040F0010008611046002810DB00BF00BF5C
:1024000000F01F0C012707FA0CF74FEA501C4FEAA7
:102410008C0C0CF1E02CCCF8007100BF00BF00BFA9
:1024200000209DE700000240001002400020024012
:102430000030024014220020E400002080841E00AE
:1024400000127A00001BB7000024F400002D3101B7
:1024500070B50C46049D0168012646618360C56025
:1024600000260661012686610026C661FE2606EA70
:1024700044060E608A6000BF4E6806F04006002EDB
:10248000FAD14E6846F003064E6070BD70B50C463A
:10249000049D0168012646618360C56000260661CF
:1024A0008661C661FE2606EA44060E608A6000BFA9
:1024B0004E6806F04006002EFAD14E6846F003063C
:1024C0004E6070BD10B504200521002804DB4A07CA
:1024D000130E0A4A135406E04A07140E084A00F085
:1024E0000F031B1FD45400BF1E2001F059FA042013
:1024F00001F056FA132001F053FA10BD00E400E099
:1025000018ED00E00149086070470000D800002085
:1025100001460A2924D2DFE801F005080B0E111448
:10252000171A1D200F48007870470F480078FBE706
:102530000E480078F8E70E480078F5E70D48007877
:10254000F2E70D480078EFE70C480078ECE70C481C
:102550000078E9E70B480078E6E70B480078E3E706
:102560000020E1E700000020010000200200002020
:1025700003000020040000200500002006000020C9
:10258000070000200800002009000020034A12680C
:102590000260034A12680A6070470000D000002001
:1025A000D400002070B504460D461548006840F080
:1025B00040004FF04021C1F8FC030846D0F8FC036E
:1025C00020F00800C1F8FC032B46002221460D48EC
:1025D000006800F0B2FF0C48006878B900BF0B48F3
:1025E00000680028FBD00020084908600448006803
:1025F00040F008004FF04021C1F8FC0370BD00001E
:10260000FC430040C8000020D8000020CC0000207F
:1026100070B505460C46AB480560AB49284600F04E
:102620006DFDAA48006840F008004FF04021C1F855
:10263000FC030846D0F8FC0340F08000C1F8FC031E
:10264000052001F0B5FA4FF04020D0F8FC0320F04F
:1026500080009E490860052001F0AAFA4FF0402052
:10266000D0F8FC0340F0800098490860052001F094
:102670009FFA4FF04020D0F8FC0340F008004FF0E4
:102680004021C1F8FC03012001F0A6FA0A2001F064
:102690008FFA012001F0A0FA0A2001F089FA112036
:1026A00001F09AFA782001F083FA292001F094FAD7
:1026B000782001F07DFA3A2001F08EFA052001F031
:1026C000BFFA0A2001F074FAB12001F085FA002067
:1026D0007F490870062048700320887003217C48D9
:1026E00001F0E2FA0A2001F063FA362001F074FAF0
:1026F0004CB9802077490860A020774908601020F5
:1027000001F09EFA20E0012C09D1A0207149086057
:10271000802071490860A02001F092FA14E0022C98
:1027200009D180206B490860A0206B490860C02057
:1027300001F086FA08E0A02066490860802066491A
:102740000860602001F07CFAB42001F045FA002016
:1027500001F076FAC02001F03FFA02205C490870CF
:102760007020487002215A4801F09EFA0A2001F0B8
:102770001FFAC12001F030FA052001F061FAC220F1
:1027800001F02AFA0A2052490870002048700221FC
:102790004F4801F089FAC52001F01EFA3C204C494F
:1027A0000870382048700221494801F07DFA0A205B
:1027B00001F0FEF9E02001F00FFA09204449087009
:1027C00016204870092088702020C87021200871C8
:1027D0001B204871132088711920C87117200872B6
:1027E000152048721E2088722B20C872042008739E
:1027F00005204873022088730E20C87310213448C6
:1028000001F052FAE12001F0E7F90B20304908709D
:1028100014204870082088701E20C870222008717B
:102820001D204871182088711E20C8711B20087255
:102830001A204872242088722B20C8720620087340
:102840004873022088730F20C8731021204801F0BC
:102850002BFA0A2001F0ACF92A2001F0BDF9002082
:102860001B490870487088701A480078401EC8706C
:102870000421174801F018FA2B2001F0ADF90020CF
:10288000134908704870887013480078401EC8705B
:1028900004210F4801F008FA132001F09DF90A20E5
:1028A00001F086F92C2001F097F9142001F080F94D
:1028B000292001F091F9782001F07AF92C2001F01B
:1028C0008BF970BDC8000020093D0000FC430040AA
:1028D000C4210020D0000020D4000020FE48006861
:1028E00040F00100FC490860081F006840F001004A
:1028F000091F086000BFF948006800F001000028C7
:10290000F9D000BFF548001F006800F00100002862
:10291000F8D0F1481838006840F03F00EE49183907
:10292000086000BFED481838006800F0010000287A
:10293000F8D000BFE9481838006800F0020000280D
:10294000F8D000BFE5481838006800F004000028FF
:10295000F8D000BFE1481838006800F008000028EF
:10296000F8D0DD481438006840F03F00DA491439E7
:10297000086000BFD9481438006800F00100002842
:10298000F8D000BFD5481438006800F002000028D5
:10299000F8D000BFD1481438006800F004000028C7
:1029A000F8D000BFCD481438006800F008000028B7
:1029B000F8D000BFC9481438006800F010000028A3
:1029C000F8D000BFC5481438006800F02000002887
:1029D000F8D0C348006840F00400C1490860C1480D
:1029E000006840F00400BF490860BD48203000681E
:1029F00020F00400BA4920310860B748001D006883
:102A000040F00100B449091D086000BFB348001D33
:102A1000006800F001000028F8D0AF481C300068C2
:102A200040F00100AC491C31086000BFAB481C30CD
:102A3000006800F001000028F8D0AB48006840F0C2
:102A40003000A9490860A948006840F03000A74953
:102A50000860A5480838006820F03000A24908390D
:102A60000860A148001D006840F030009E49091D23
:102A700008609C480830006840F01000994908310F
:102A8000086097482030006840F0100094492031D9
:102A900008609448006820F010009249086091484E
:102AA0000C30006840F010008E490C3108609048EE
:102AB000006840F00E008E4908608E48006840F0C3
:102AC0000E008C4908608A480838006840F00E0003
:102AD00087490839086087482030006820F00E00D8
:102AE0008449203108608448006840F01000824921
:102AF00008608248006840F0100080490860804803
:102B00007B49091F0860081D006840F01100091D7D
:102B100008607848006820F0110076490860744821
:102B20000838006840F011007149083908607148A0
:102B30002030006820F011006E49203108606C4898
:102B40000830006820F011006949083108606848C1
:102B50001438006840F01100654914390860654870
:102B60001030006820F0110062491031086061489F
:102B70000830006820F011005E4908310860081F25
:102B8000006820F01100091F08606FF0110059491A
:102B90000C310860081D006840F01100091D086034
:102BA00057485649091D08605348006840F0C8005E
:102BB000514908605148006840F0C8004F4908601A
:102BC0004D482030006820F0C8004B492031086093
:102BD0004A48103000684B490840484910310860A5
:102BE0004648006840F024004449086042482030CC
:102BF000006840F024004049203108603F48103010
:102C00000068414908403D491031086008460068A5
:102C10003E4908433949103108603148006840F0A6
:102C200002002F4908602F48006840F002002D493B
:102C300008602C480830006840F00C002949083131
:102C4000086027482030006840F00C0024492031FB
:102C500008602448006840F00C00224908602048C1
:102C6000006840F00C001E490860081F006820F052
:102C70000C002749C1F8FC031A481038006840F0DE
:102C8000080018491039086016481030006840F4F0
:102C90004C5014491031086012481438006840F054
:102CA0000C0010491439086015481449091D0860C2
:102CB000081D006840F00300091D08600E48203020
:102CC000006840F003000C49203108600B480068A0
:102CD00040F0030009491DE01CE60F401CEA0F40CC
:102CE000005400401C55004024450240204402404E
:102CF0002455024000540240004400401C4500405E
:102D00004B434F4CFF0FFF00FFF00FFF000220006E
:102D1000005000400860AF48006820F00300AD4953
:102D20000860081D006820F0FF00091D08600846C3
:102D3000006840F011000860A748006B20F0010017
:102D4000A5490863A548006820F00F00A349086062
:102D5000084600680860A048006B20F020009E49EB
:102D60000863052048621B2088620846C06A20F07C
:102D70006000C8620846C06A40F04200C862084667
:102D8000C06A40F00400C8620846C06A20F008002B
:102D9000C8620846C06A40F01000C8620846006B6E
:102DA00040F4807008630846006B40F0010008633F
:102DB0008B488C490860081D006840F01100091D0F
:102DC00008608948006820F011008749086085483C
:102DD000001F006840F011008249091F0860824806
:102DE0002030006820F011007F49203108607D48C4
:102DF0000C30006820F011007A490C3108607948E5
:102E00001038006840F011007649103908607648A3
:102E10001030006820F011007349103108607248CA
:102E20000830006820F011006F4908310860081F61
:102E3000006820F01100091F08606FF011006A4956
:102E40000C310860081D006840F01100091D086081
:102E50006648006840F00F006449086064480068F4
:102E600040F00F006249086060482030006820F0A0
:102E70000F005E49203108605D48103000686FF334
:102E80000F005B49103108605A48006820F00E00BE
:102E9000584908605848006840F00E0056490860DC
:102EA00054482030006820F00E005249203108605C
:102EB000514810300068514908404F4910310860AE
:102EC0004D480C38006840F00E004B490C39086042
:102ED0004B48006840F0F0004949086049480068E4
:102EE00040F0F0004749086045482030006820F075
:102EF000F00043492031086042481030006880B239
:102F00004049103108604048006840F040003E49A8
:102F100008603E48006820F070603C490860084640
:102F2000006840F0E06008603948C06820F00100A7
:102F30003749C8600846006840F004000860084649
:102F4000406840F0020048600846406820F01000E9
:102F500048604FF6E85088625F20886308468069C1
:102F600040F0010088610846406A40F00100486274
:102F70000846C06840F00100C86023482038006857
:102F800040F02000204920390860204810380068AF
:102F900040F020001D49103908601B48006820F0EF
:102FA00020001949086018482038006840F04000A7
:102FB00015492039086015481038006840F0400075
:102FC0001249103908601048006820F040000E498E
:102FD000086070472845004000C00040C8CF00404E
:102FE0004B434F4C205502400054024000740040B7
:102FF0001C750040004402401C450240FF00F0FFE9
:10300000006400401C650040205400402C550040E6
:10301000000003402DE9F04104462568EE68D5F82C
:10302000188006F0040028B3A86887B294F82C0032
:1030300000F0010028B9E06948B16269E1698F5484
:1030400005E0606A18B16169606A20F81170606912
:10305000401C60616069A16A88420BDB686920F0EE
:1030600004006861686820F002006860206B08B1A5
:10307000206B804706F0020010B906F00100D0B1C5
:103080002069A16A884204DB686920F00800686151
:1030900011E094F82C0000F0010020B92169A0692A
:1030A000405CA86004E02169206A30F81100A86043
:1030B0002069401C2061BDE8F081000010B5024984
:1030C0000868FFF7A7FF10BD0422002010B50249D1
:1030D0004868FFF79FFF10BD0422002010B5024989
:1030E0008868FFF797FF10BD0422002010B5024941
:1030F000C868FFF78FFF10BD04220020024611634D
:10310000704700002DE9F04F84460E4690469946E0
:10311000624636B1012E07D0022E08D0032E0CD104
:1031200008E0A14907230CE0A049222309E0A049B7
:10313000222306E09F49222303E04FF0FF30BDE841
:10314000F08F00BF116053609B4840F8262048680C
:1031500020F002004860486820F004004860B9F19F
:10316000000F07D0B9F1010F09D1086820F0400025
:10317000086007E0086840F04000086002E06FF077
:103180000100DCE700BF0998022802D003280AD119
:1031900004E0086820F08000086007E0086840F05C
:1031A0008000086002E06FF00200C8E700BFD1F8BD
:1031B000C80F20F00F00C1F8C80FD1F8C80FC1F830
:1031C000C80F7E48D0F800A09AFBF8F5022D02DA6D
:1031D0006FF00400B3E7FE2D02DC2F4600240AE066
:1031E000FE27FE2095FBF0F0441EB4F5807F02DD43
:1031F0006FF00400A3E7086820F47F4008600868C7
:1032000040EA042008600F61086820F00F000860A1
:103210000C6092F82C0020F0010082F82C000A9833
:10322000001F0D2871D2DFE800F0070E151C232ABD
:1032300038465462717F8D00086840F003000860D2
:103240000420D0608FE0086840F00400086005208A
:10325000D06088E0086840F0050008600620D06073
:1032600081E0086840F0060008600720D0607AE03E
:10327000086840F0070008600820D06073E0086824
:1032800040F0080008600920D06092F82C0020F07F
:103290000100401C82F82C0065E0086840F009003D
:1032A00008600A20D06092F82C0020F00100401C39
:1032B00082F82C0057E0086840F00A0008600B20F4
:1032C000D06092F82C0020F00100401C82F82C0005
:1032D00049E0086840F00B0008600C20D06092F8CC
:1032E0002C0020F00100401C82F82C003BE0086814
:1032F00040F00C0008600D20D06092F82C0020F007
:103300000100401C82F82C002DE029E0086840F004
:103310000D0008600E20D06092F82C0020F0010013
:10332000401C82F82C001EE0086840F00E00086087
:103330000F20D06092F82C0020F00100401C82F891
:103340002C0010E0086840F00F0008601020D060EA
:1033500092F82C0020F00100401C82F82C0002E0C2
:103360006FF00300EBE600BF486840F010004860D3
:10337000486840F0020048601846002811DB00BF92
:1033800000BF00F01F0E4FF0010B0BFA0EFB4FEACF
:10339000501E4FEA8E0E0EF1E02ECEF800B100BFA7
:1033A00000BF00BF0020CAE600800040009000403F
:1033B00000A0004000B0004004220020E4000020F3
:1033C00030B503460C4619460A68506820F00200E2
:1033D0005060106820F00F00106091F82C0020F071
:1033E000010081F82C00201F0D2871D2DFE800F0C9
:1033F000070E151C232A38465462717F8D00106811
:1034000040F0030010600420C8608FE0106840F0B6
:10341000040010600520C86088E0106840F00500D6
:1034200010600620C86081E0106840F0060010605F
:103430000720C8607AE0106840F00700106008209C
:10344000C86073E0106840F0080010600920C86090
:1034500091F82C0020F00100401C81F82C0065E060
:10346000106840F0090010600A20C86091F82C0034
:1034700020F00100401C81F82C0057E0106840F05B
:103480000A0010600B20C86091F82C0020F00100A9
:10349000401C81F82C0049E0106840F00B001060DF
:1034A0000C20C86091F82C0020F00100401C81F82D
:1034B0002C003BE0106840F00C0010600D20C8604C
:1034C00091F82C0020F00100401C81F82C002DE028
:1034D00029E0106840F00D0010600E20C86091F8DF
:1034E0002C0020F00100401C81F82C001EE0106828
:1034F00040F00E0010600F20C86091F82C0020F002
:103500000100401C81F82C0010E0106840F00F0012
:1035100010601020C86091F82C0020F00100401CC1
:1035200081F82C0002E06FF0030030BD00BF50684E
:1035300040F0020050600020F7E770B504460D46E9
:103540002046016800260661466190F82C6006F06E
:10355000010636B9C26185618362866936788E60FC
:1035600006E0426205625E108662066A36888E60F8
:103570000669761C06610C264E614E6846F002060E
:103580004E6070BD01205D4908605D480068401CC8
:103590005B4908605B480068401E5A4908605A4809
:1035A0000068401E5849086058480078401E574936
:1035B000087057480068401E554908605048006828
:1035C000642802DB0020534908605148006830B984
:1035D00041F288304E49086001204F4908604B484D
:1035E000007828B94C48006810B901204B490860A0
:1035F00044480068B0B94A48006898B9484800682B
:1036000040B14848006840F010004FF04021C1F838
:10361000FC0307E04348006820F010004FF0402111
:10362000C1F8FC033E480068C8B13D48006840B19D
:103630003C48006840F010004FF04021C1F8FC0306
:1036400007E03848006820F010004FF04021C1F832
:10365000FC030020324908601E202A4908602848DF
:103660000068B0F57A7F17D101202F4908602F49F3
:1036700008600020224908600120264908602C4883
:103680000068401C2A4908600846006829498842A9
:1036900002D90020264908602748006860B1264802
:1036A0000068401E244908600846006820B90A20C6
:1036B00008600120214908602148006860B1204865
:1036C0000068401E1E4908600846006820B9322084
:1036D000086001201B4908601B48006868B11A484F
:1036E0000068401E184908600846006828B9012093
:1036F000164908600A20144908607047200000201D
:103700002C000020700000207C00002054000020CD
:103710005C00002084000020600000205800002091
:1037200074000020FC4300402800002024000020FA
:103730003400002080510100400000203C000020A7
:103740008C00002088000020A4000020A800002099
:10375000304A106E116F01F00042DAB301F40062DA
:1037600022BB2D4A2D4B1A6001F080428AB91A46BD
:10377000126852081A6000F48002002A49D01A46E2
:103780001368C1F3C552521CB3FBF2F2234B1A600B
:103790003FE000F48002E2B3204A1368C1F386528E
:1037A000521CB3FBF2F21D4B1A6032E01C4AC0F30C
:1037B000841352F82320194B1A6000F4800242B39C
:1037C0001A461368C1F3C552521CB3FBF2F2134BF5
:1037D0001A601EE0FFE700F400623AB1104AC0F33D
:1037E000841352F823200D4B1A6006E00A4A0B4B53
:1037F0001A601A46126852081A6000F4800242B138
:10380000064A1368C0F3C352521CB3FBF2F2034BD7
:103810001A60704700E00F400084D717E4000020D2
:10382000D85800000CB53748006840F4700035499E
:1038300008603548006E0190019820F00100019069
:1038400031490198086600BF2F48006D00F4807070
:103850000028F9D04FF480702B498865019820F03A
:103860003000019001980190019820F4F8600190D7
:10387000019840F4A8600190019820F0F060019058
:10388000019840F480000190019820F420500190AC
:10389000019820F460200190019801900846006F83
:1038A00040F0004008670846006F0090009840F024
:1038B00080400090009820F480000090009820F054
:1038C000FE500090009820F070000090009800904A
:1038D000009840F080700090009820F40050009014
:1038E000019808660098086700BF0848006800F063
:1038F00001000028F9D00448006F20F4006002495C
:1039000008670CBD88ED00E000E00F4068E10F4063
:1039100010B50348C469204600F004F810BD00004B
:103920000000034000F00101C1B10D49096809B967
:10393000012100E000210A4A11601146096889014D
:10394000084A1160064909684901074AC2F880100F
:103950000649496A41F00101044A5162704700007A
:1039600030000020005100400050004000000340A3
:1039700003B401984100009850EAC12018BF042008
:103980004A0D18BF40F0010040F2FF72B2EB515FE8
:1039900008BF40F00200012808BF052002B07047B0
:1039A00000280DDB00BF00BF00F01F020121914085
:1039B0004209920002F1E022C2F8001100BF00BFEC
:1039C0007047000010B5002804DB4A07130E054AB3
:1039D000135406E04A07140E034A00F00F031B1F9E
:1039E000D45410BD00E400E018ED00E030380A289F
:1039F00001D2012070470020704770B504460D4683
:103A0000E0B200F039FC204670BD2DE9F0410446DB
:103A10002568AF6907F00100002841D00120E86166
:103A20006E68286800F00100002868D106F00100E7
:103A3000002835D106F0020028B306F0100020B9A6
:103A400006F00800E8B1206AD8B906F0100048B9BD
:103A5000686840F00400686000BF686800F04000DB
:103A60000028FAD106F0040008B1012020620020ED
:103A700060610120E061606A08B1606A8047BDE86A
:103A8000F08100202062A06980B1286840F0010028
:103A90002860E068012804D8686840F00700686082
:103AA0007FE0686840F00B0068607AE02169A068F8
:103AB000405CA8602069401C2061D4E90310884262
:103AC00004D2686840F0010068606AE0D4E903103D
:103AD000884204D1686840F00500686061E0002019
:103AE000606106F0020010B10120E06101E00020F9
:103AF000E061606A002854D0606A804751E0D4E9F0
:103B00000301401E81422ED206F00200A8B106F049
:103B1000100048B9686840F00400686000BF686839
:103B200000F040000028FAD1002060610120E0612F
:103B3000606A08B1606A8047A1E7A8682269A16845
:103B400088542069401C2061D4E90301401E814251
:103B500004D2686840F00900686022E0686840F0BC
:103B6000050068601DE006F0020040B100206061C1
:103B7000606A08B1606A80470120E0617FE7A86859
:103B80002269A168885406F0020010B10120E061AA
:103B900001E00020E06100206061606A08B1606AB5
:103BA000804707F0020008B10220E86100BF66E725
:103BB00008B508490968414342F21072B1FBF2F1BD
:103BC000009100E000BF00994A1E00920029F9D13F
:103BD00008BD0000E400002010B50446144804703D
:103BE0001448006820F040004FF04021C1F8FC0369
:103BF0000846D0F8FC0320F00800C1F8FC030123BC
:103C000000220B490C480068FFF797FC00BF0B48E7
:103C100000680028FBD000200849086005480068BB
:103C200040F008004FF04021C1F8FC0310BD000037
:103C3000DC000020FC430040C8000020CC00002035
:103C400010B50446144804701448006840F0400061
:103C50004FF04021C1F8FC030846D0F8FC0320F0E7
:103C60000800C1F8FC03012300220B490C4800683E
:103C7000FFF763FC00BF0B4800680028FBD0002062
:103C8000084908600548006840F008004FF04021EE
:103C9000C1F8FC0310BD0000DD000020FC43004023
:103CA000C8000020CC00002070B504460D46134823
:103CB000006840F040004FF04021C1F8FC03084686
:103CC000D0F8FC0320F00800C1F8FC032B460022CA
:103CD00021460B480068FFF730FC00BF0948006828
:103CE0000028FBD00020074908600448006840F025
:103CF00008004FF04021C1F8FC0370BDFC430040B8
:103D0000C8000020CC00002010B50948006818B990
:103D10000120084908600AE0054800688047064815
:103D2000006840F008004FF04021C1F8FC0310BDCE
:103D3000D8000020CC000020FC4300401CB5FEF75A
:103D4000CDFDFFF705FD964800684FF47A71B0FB92
:103D5000F1F4601EB0F1807F00D30FE0601E4FF0E1
:103D6000E021486107214FF0FF30FFF72BFE0020D4
:103D70004FF0E02188610720086100BF0021072083
:103D8000FFF720FE082002210123864ACDE900101A
:103D900000218548FFF7B6F900F012FA0122002150
:103DA0008248FEF7C3FA82498048FEF785FA01216E
:103DB0000820FFF707FE7F497C48FDF715FD7E4987
:103DC0007A48FEF77BFAFEF77DFB7CA0FCF73EFB12
:103DD000794841787EA0FCF739FB00BF8148006834
:103DE00030B17F2074498870C870704800F050FA74
:103DF0007D480088632802DD63207B4908807B487A
:103E0000006880B30020794908606B484078012839
:103E100029D17448006830BB73480088002822DD2F
:103E200071480088401E70490880084600880A21B1
:103E300090FBF1F082B21046FEF76AFB5E49887093
:103E4000694800880A2190FBF1F301FB130082B25C
:103E50001046FEF75DFB5849C870544800F018FA48
:103E600001206349086054484078E8B95D4800681B
:103E7000D0B95D4800880A2190FBF1F082B210466B
:103E8000FEF746FB4C498870574800880A2190FB92
:103E9000F1F301FB130082B21046FEF739FB4649ED
:103EA000C870424800F0F4F95248006848B15248DE
:103EB000006830B100204F4908604F490860FDF7A5
:103EC00033FF4E48006830B13A493848FDF768FC86
:103ED00050204B4908704948006858B1494800686B
:103EE00040B10020474908604449086031492F48E3
:103EF000FDF7C8FB4448006838B14448006840F00A
:103F000004004349C1F8FC0306E04048006820F083
:103F100004003F49C1F8FC033E480068A8B33E488E
:103F2000006890B33D48006878B300203A490860C3
:103F30003B48007800F096F93A48006850B9384894
:103F40000078401C3649087008460078082801D1DE
:103F50000020087033480068012809D130480078F3
:103F6000401E2F4908700846007808B908200870DC
:103F70002A480068401E294908600846006820B9A0
:103F80000020244908602849086028480068002863
:103F90003FF424AF00202549086000F049F81DE7F0
:103FA000E400002040787D01080100208C210020E1
:103FB0004D420000B4210020640000200A0D486535
:103FC0006C6C6F20576F726C6421200A0D0000002A
:103FD000436F756E74204D6F64653A2025640A0D39
:103FE00000000000800000207A0000202400002053
:103FF000740000203C0000204800002060000020E9
:10400000540000205800002084000020FC5302408F
:1040100000500240B8000020A8000020AC000020A2
:1040200010000020B4000020A00000208800002024
:10403000574A126842F00F02564BC3F8FC23002087
:1040400032E0544AD26B012383409A43514BDA63E6
:1040500000BF00BF00BF504A1268C2F342010729E7
:1040600021D0062906D100EB40024C4B9A5C4C4B08
:104070001A7012E0052907D100EB4002474B1A44A1
:104080005278474B1A7008E0032906D100EB400232
:10409000424B1A449278424B1A700122414B1A60EB
:1040A000414B1A6002E0401C0428CADB00BF3F4AB3
:1040B0001268042A5FDA3B4A1268002A5BD13A4A46
:1040C0001268002A57D00022374B1A60344A1278FF
:1040D0002A2A12D10122364B1A600422334B1A606D
:1040E000344A126892024FF4B47392FBF3F2324BEB
:1040F0001A600122314B1A6015E0294A1278232AEE
:1041000011D100222A4B1A600422284B1A60294A36
:10411000126892024FF4B47392FBF3F2264B1A60CA
:104120000122264B1A60214A1268032A23DA1C4A0C
:104130001278232A16D01A4A12782A2A12D01D4A37
:10414000126802EB820252001A4B1A601A46126879
:10415000134B1B781A44174B1A60144A1268521CEE
:10416000124B1A60134A1268B2F5347F03DD4FF424
:104170003472104B1A60072902D10022094B1A60D1
:10418000034A126822F00F02024BC3F8FC23704767
:10419000FC73004000700040FC430240110000200E
:1041A0009000002094000020C4000020A000002007
:1041B000B4000020B0000020AC000020B8000020B7
:1041C0000EB502211648FEF723FA01A902A8FEF750
:1041D000DDF94FF40050134B00901348DDE9012145
:1041E000FDF7FAFD10210E48FFF7EAF80120FDF770
:1041F000A7FBFF20FDF70AFDFF20FDF7C1FF0B48DD
:10420000FDF7B8FF0A48FEF77DF90A48FDF79EFB67
:104210000948006840F002000849C1F8FC030EBDDF
:10422000080100203C0100203C2100205C5D0000D2
:104230005942000041420000FC5300400050004041
:104240000120014908607047480000200020014912
:104250000860704750000020012001490860704745
:1042600048000020024911F83010024A11607047DE
:10427000A4490000FC63004000BF0449896901F0C3
:1042800020010029F9D101490860704700C00040B1
:104290007CB505460C46A0788DF80400E0788DF8D2
:1042A000050002200090217801AB14220648006826
:1042B000FEF7ECF801200549086000BF03480068DC
:1042C0000128FBD07CBD0000E80000205000002049
:1042D00010B500290AD00878002807D0054878448E
:1042E000FCF7C0FD002801D0002010BD0248784432
:1042F00010BD00000E1C0000061C000021F0004252
:10430000A2F16052B2F5801F01F0004328BFD2F144
:104310007F6C0BD95FEA001C43EAC20242EB50708B
:1043200018BF704728BF20F001007047B2F5801F0A
:10433000BCBF184670474FEA410C1CF5001F02D263
:10434000084600F027BB70B500F070F90000008946
:10435000FFF7F6BF4FF00040A0F580007047000067
:1043600010B591EA030F48BF83F0004300F1BA8112
:10437000841A71EB030C05D2121943EB0C03001BDA
:1043800061EB0C01DFF824E14FEA1154A4EB135C5C
:104390001EEA430F18BF9EEA445F73D023EA0E0360
:1043A000DCF1200E21EA045143F4801332D322FAC7
:1043B0000CFE10EB0E0023FA0CFE41EB0E01CCF1CB
:1043C000200E03FA0EFE10EB0E0051F10001B1F5C4
:1043D000801FCCF1200E32D201EB045112FA0EF202
:1043E000BDE8104058BF7047401C38BF5FEA42022A
:1043F00018BF7047002814BF20F0010041F10001F0
:104400004FEA410313F5001F38BF7047A1F1C041C7
:1044100000F05AB9012A43EB0302ACF1200CDCF1A5
:104420001F0E32BF4FF0000E23FA0CF310EB030007
:1044300041EB0451B4EB115FD0D0A1EB045101F575
:10444000801149085FEA300001EB04510ED350F1AE
:10445000000038BF12FA0EFE08D1BDE81040C9E7CF
:10446000401C38BF5FEA4202CAD1C3E7BDE8104032
:104470004FEA410313F5001F38BF7047A1F1C04157
:1044800000F022B99EEA445F08D011EA5E0FBDE851
:10449000104004BF01F0004100207047BDE810400B
:1044A00070B500F0C3F800BF64FBBE3E0000E0FF43
:1044B000B0FA80F310FA03F10AD0C3F11D0303F53B
:1044C00080634FEA41504FEA035202EBD12170471B
:1044D0004FF0000070470000DFF848C170B51CEADB
:1044E000111E1EBF1CEA13159EEA0C0F95EA0C0F55
:1044F00000F06F8081EA030423EA4C134EEAD47E75
:1045000021EA4C1141F4801143F48013AE44A1FB25
:10451000024CA0FB0365AEF17F7E361955EB0C050E
:10452000A1FB034C4CF10003A0FB021C16EB0C0694
:10453000654153F10003094218BF46F0010613F428
:10454000007F0BD14FEA03314FEA0530340341EAD3
:10455000155140EA16506FF003020AE04FEAC321FA
:104560004FEAC520F40241EA555140EA56506FF037
:10457000020202EB2E4201EB025585EACE710AD00F
:104580005FEA440C18BF24F0004450F1000041F1F0
:10459000000120EAD47040F2FE7C624500D270BD7A
:1045A000A84214BF4FF080444FF04044002E08BF93
:1045B0000024BEF1806FA8BFA1F1C041BDE87040EA
:1045C00080F282804FF0000001F1C04101F0004113
:1045D00070479EEA0C0F0CEA131518BF95EA0C0FF2
:1045E00006D04FF0000081EA030E0EF0004170BDCE
:1045F00000F01CF88900013E00F007B800F009B88F
:104600004FEA430C5FEA5C5C08D081EA030100F0EA
:104610005BB84FEA410C5FEA5C5CF6D14FF00000FA
:10462000014970470000FF070000F87F0EF1020EFD
:104630002EF0030E5EF8046B364205D4012A43EBDC
:10464000030515F5001F12D8012841EB010C1CF5DC
:10465000001F0CD80ED14FEAD17C15F5001F0CEBD2
:104660004C0C0CF1020C08BF4CEBD37C04E04FF077
:10467000080C01E04FEAD37C0CEB4C0526FA05F65A
:1046800006F00706B6F1040C06D20EEB860CBDE868
:1046900070404CF0010C6047DFE80CF0090B02029F
:1046A0004FF000414FF00000A1F5002170BD194608
:1046B0001046012851EB010418BFD4F5001484BF43
:1046C000002001F0004170BD0808A0F500114FEA7C
:1046D0003101704710B591EA030F48BF83F00043E2
:1046E0003FF546AE841A71EB030C07D212198CF019
:1046F000004C43EB0C03001B61EB0C01DFF8A4E161
:104700004FEA1154A4EB135C1EEA430F18BF9EEA54
:10471000445F00F0B08023EA6E03524221EA045164
:10472000C3EB6E0338BF5B1EDCF1200E25D322FAEB
:104730000CFE10EB0E0043FA0CFE41EB0E01CCF127
:10474000200E03FA0EFE10EB0E0051F10001CCF129
:10475000200E29D412FA0EF201EB0451BDE81040EC
:1047600058BF7047401C1CBFB2F1004F7047002873
:104770000CBF491C20F00100704712EB020E43EB06
:10478000030218BF4FF0010E4EEA4202ACF1200CBA
:10479000DCF11E0E54D943FA0CFE10EB0E0051F161
:1047A000FF31CCF11E0ED5D50EF1010E12FA0EFE20
:1047B000404141EB010101EB445C5FEA5C5C10D9D4
:1047C00010EBDE7001EB045138BFBEF1004FBDE8C5
:1047D000104018BF704700280CBF491C20F0010092
:1047E000704730D24FEAD42C11F5001124F4006444
:1047F0001BD0B1FA81F20B3AA41AA41ED2F1200305
:10480000914030FA03F31943904001EBCC71002C36
:1048100001EB0451BDE81040A8BF704701F1C04151
:104820004FF0000001F000417047B0FA80F310FA39
:1048300003F100D110BDE41A173C4805C90AE4E7AA
:1048400001EB045110BD491001EB0451BDE81040CB
:104850004FEA300002E04FF0000170474A0008BF05
:104860000042F8D0B2F5001F28BF704701F00041A8
:104870004FF0000070479EEA445F07D011EA5E0FD8
:10488000BDE8104004BF002100207047BDE8104083
:1048900070B5FFF7CBFE00BF40DFF63E83F000416E
:1048A000104670470000E0FF43004FEAD30C4FEA88
:1048B0003C0C43401FBF40070CF1605113F0FE4F0A
:1048C00070471CF0006F03D100200CF000417047CE
:1048D0000CF0004343EA507010B540EACC0000F001
:1048E0000EF800BF000000924FEA0001FFF7ECBE97
:1048F0004FF000414FF00000A1F5002170470EF18C
:10490000020E2EF0030E5EF8044B244204D44FEA4C
:104910004102B2F17F4F11D84FEA4003B3F17F4F0C
:104920000CD80ED14FEAD07CB2F17F4F0CEB4C0C7F
:104930000CF1020C08BF4CEBD17C04E04FF0080CEA
:1049400001E04FEAD17C0CEB4C0324FA03F404F0B1
:104950000704B4F1040C06D20EEB840CBDE8104041
:104960004CF0010C6047DFE80CF0070802024FF042
:104970000040A0F5800010BD0846420018BFD2F1EB
:10498000807288BF00F0004010BD4FF04070E1EE33
:10499000100A7047FF2141EAD050C0057047FBF76D
:1049A000C9BF000060000000AC490000200000000A
:1049B000B449000030000000BC49000010000000B5
:1049C000C449000090000000CC49000080000000B5
:1049D000D4490000C0000000DC4900004000000095
:1049E000A44900000506000C600E033212121212D8
:1049F000121212124212D00D077222122212221229
:104A000022000A501908A21232123212171722126B
:104A100032122717121232123212F0F050190831E6
:104A200063452211121211445454541211121211DE
:104A300012254361F0D02610F02452422232522235
:104A4000325222226222128422D224821222622232
:104A50002262222252322242540008201A0CE567B8
:104A6000523252326574721221322312223432448D
:104A70003A3431000620090332121212F0F070129B
:104A800005722232322232323232323242323242F3
:104A900060120552423232423232323232322232E5
:104AA0003222800A0681353132120009100E09F0D7
:104AB000F2727248184272720007200A03F0F03254
:104AC00012212111500905F0F0A414F0F060070341
:104AD000F0F03212D01005723232223232323232DB
:104AE000223232F0801909B44623231242124212B4
:104AF0004212421242124213232644F0F090120650
:104B00009233241212112242424242424242F0A007
:104B10001309B44623321242726263535352681827
:104B2000F0F0701409B53712427244547372124295
:104B300013232644F0F0901509E2636354421242B5
:104B4000123222223228186272F0F0801409A6363E
:104B500032636637223372124213232644F0F090F8
:104B60001709B53722321272133723231242124229
:104B700022322644F0F09011099818626272627233
:104B80007262727272F0F0B01709B4462242124299
:104B9000124226362242124212422644F0F0901768
:104BA00009B44622322242124213232733127212D0
:104BB000322735F0F0900803C212F01212D00B0326
:104BC000C212F01212212111501009F0F041634479
:104BD0003443747473810005600B09F0F06818A801
:104BE000180009100F09F0C18374747344344361D1
:104BF0000006501309B446233212426353536272C3
:104C0000F01272F0F0A02D10F0668A536333231473
:104C100032181213123312121242221212422212AC
:104C200012422212123312221A4214135392336385
:104C30005A86501A0CF01393821272127212623258
:104C400052325749325232522272000610170BB8B4
:104C500039225222522252283922531262126219E8
:104C600028000570150BE54832431261229292929A
:104C7000926132432855000570180BB74922522221
:104C800062126212621262126212621252292700CA
:104C900006110AA91912828289191282828919F0D1
:104CA000F0B011099818127272772722727272721C
:104CB000F0F0D0170BE54832431261229292351280
:104CC000351262224328550005701B0BB262126236
:104CD0001262126212621A1A126212621262126274
:104CE0001262F0F0F00F03321212121212121212AC
:104CF000121212D01309F27272727272727212422E
:104D000013232644F0F0901D0BB26212522242325D
:104D1000324222521444124332324232522253124D
:104D200062F0F0F0110992727272727272727272A3
:104D30007818F0F070290CC3531353143414341240
:104D40001131121212121212121212121212121225
:104D50002322122322122322123132000610210BA9
:104D6000B26213521442144212123212222212223E
:104D7000221232121244124412531262F0F0F0184E
:104D80000BE4583242226212621262126212621202
:104D900062224238540006130AA7382243125212E4
:104DA000431827328282828200061C0BE45832426A
:104DB00022621262126212621262122222222438CB
:104DC0005312A2F0F040190CC84932532262225308
:104DD00029375233424332523253226300061015B0
:104DE0000AC54722431252147665831252133327A1
:104DF00045F0F0D0110BBA1A52929292929292927E
:104E000092920006101B0BB26212621262126212C0
:104E10006212621262126212621343284600057027
:104E20001A0CC27212722252325242325232523230
:104E3000621272128393930006502B10F0124342B9
:104E400013334222333232221222322212224212EF
:104E5000121252121212521212126334633373334B
:104E60007333000840190AA25213332232421255FA
:104E70006373655212423223331252F0F0B0160BB4
:104E8000B26213432242422252226482929292924E
:104E900092000610110AB8287272737272737272DD
:104EA0007919F0F0B0120554141232323232323223
:104EB00032323232341460100552323242323232DF
:104EC0003232423232F0601205541432323232320F
:104ED0003232323232321414600E09C26454422229
:104EE00032222242000B30070A00114919B0070490
:104EF00042320007101409F0F0753722325436237D
:104F0000222232273412F0F0701809927272721352
:104F10003723231242124212421323172213F0F0B6
:104F2000901208F0F0443613221262626322263493
:104F3000F0F0401809F27272331227132312421252
:104F40004212421323273312F0F0701208F0F0439C
:104F500045223217171263222543F0F050110794AF
:104F60002522452532525252525252F0F020190950
:104F7000F0F0831227132312421242124213232706
:104F8000331212421826B019099272727214281341
:104F900032124212421242124212421242F0F07097
:104FA0000E033212421212121212121212D01105F4
:104FB000723282323232323232323232141370185A
:104FC00008826262623212222212353533122222A4
:104FD00022321232F0F0300F033212121212121279
:104FE0001212121212D0200D00064213232C13238A
:104FF0002212323212323212323212323212323241
:105000001232320006501809F0F0621428133212DE
:105010004212421242124212421242F0F07015093C
:10502000F0F08446232312421242124213232644F4
:10503000F0F0901909F0F062133723231242124264
:1050400012421323172213327272F0101809F0F073
:1050500083122713231242124212421323273312C0
:10506000727272A00F06F092121512424242424230
:1050700042F0D01208F0F035271232145554123293
:105080001725F0F040100681424235152242424277
:10509000424433F0A01809F0F06242124212421268
:1050A00042124212421233182412F0F0701608F025
:1050B000F02232123212322212321232124353537F
:1050C000F0F050220E000702333212333222232234
:1050D000321212123212121232121212433353339C
:1050E00053330007301608F0F02232131322124314
:1050F0005353421223131232F0F030180AF0F0A288
:105100005212522232323242125212556373726478
:1051100063F0101008F0F02717525343435257170B
:10512000F0F0301207A334325252523343625252DB
:1051300052525443801203321212121212121212DD
:105140001212121212124012077344525252526338
:105150004332525252523433B00C090006733118A4
:105160001133000920000000010E110D00000500A0
:105170001300200039005200780092009B00AD001F
:10518000BF00C900D700E100EA00F10001011A01E7
:105190002C013F01530168017C019301A401BB0173
:1051A000D201DA01E501F50100020F0222024F02ED
:1051B000690280029502AD02BE02CF02E60201033F
:1051C00010032303400351037A039B03B303C60375
:1051D000E203FB03100421043C04560481049A04F6
:1051E000B004C104D304E304F50403050A05110562
:1051F00025053D054F05670579058A05A305BC050D
:10520000CA05DB05F305020622063A064F066806C4
:1052100080068F06A106B106C906DF06010717073B
:105220002F073F075107630775070000E449000097
:1052300005050008100B033212121212124212A0BE
:105240000B0662121212121200067014079121311D
:1052500021162121312126212121213121F09014F3
:105260000621432111111111334343311111111141
:105270002341F01C099321311121311111411111E8
:1052800043144111114111113121113123F0D01575
:105290000AC362125212636452121222233224345D
:1052A00013F0F0100703321212F0D00E0461222125
:1052B0002222222222313231500E04413231322256
:1052C000222222212221700A045123212111F0F0EF
:1052D000300B07F08252363252F0F0800803F09221
:1052E000122111500604F0D3F0600603F09212A0D0
:1052F0000C04613121313131312131F01407842224
:105300002212221222122212221222122224F080AF
:105310000E0572231411123232323232F0100E079F
:1053200084222252524242424256F0700F07842297
:10533000225233625252122224F0801007A24343B9
:10534000311231122122264252F0800F078522426B
:105350005522225252122224F08012079331221237
:1053600055222212221222122224F0800D07765298
:1053700042524252425252F0A01307842222122279
:1053800012222422221222122224F08012078422C6
:10539000221222122212222552122133F0900703E8
:1053A0009212A212A009039212A2122111500C070C
:1053B000F041432332636361F0E00807F0D686F0E2
:1053C000F0D00C07E1636362332341F0F0400D0736
:1053D00084222252424252C252F090230CF5624281
:1053E000312214211611111222211112222111121F
:1053F00022211116112122134181316156301308E7
:10540000A35342123212321232122712321232F0E7
:10541000A0130886223212321232162232123212AF
:105420003216F0B00F08A432221262626262722257
:1054300034F0B01408853222223212321232123283
:105440001232122225F0C00D077612525256125215
:105450005256F0700D06651242424512424242F029
:10546000701208A4322212626223123212322222F5
:1054700034F0B01508823212321232123217123260
:10548000123212321232F0A00C0332121212121225
:10549000121212A00F07B25252525252122212226C
:1054A00024F080140882321222221235362222225F
:1054B0002222321232F0A00D077252525252525230
:1054C0005256F0701E0AA33313331414141412111D
:1054D000111212111112121312121312122122F0B0
:1054E000F010170882321322132214121211121212
:1054F00014122312231232F0A01409B442222242C1
:105500001242124212421242222244F0F011088644
:10551000223212321232123216226262F0F0160970
:10552000B44222224212421242124212211222227A
:105530004591F0401409963232223222322632222C
:10554000323222322242F0D00F08952232126455B4
:105550005462123225F0B00D077632525252525236
:105560005252F09015088232123212321232123236
:1055700012321232123225F0B0150AA25222323201
:105580003232324212521252126373F0F040200E45
:10559000E233321233322215123212121232121246
:1055A0001232121212433353335333F0F0F0130814
:1055B000823212322212354345321222321232F036
:1055C000A01109924222223222446272727272F057
:1055D000F0100D07765242425242425256F0700E7F
:1055E000044312222222222222222223500C04418E
:1055F0003141313131314131D00E04432222222256
:10560000222222222213500C0792524431212222BC
:105610000006200608000B079007044232F0F0B0A5
:105620001007F07421323422121222122225F07057
:105630001407725252122312122212221222131231
:105640001212F0800E07F0742222125252522224BB
:10565000F0801407B25222121213122212221222C6
:1056600012132212F0700F07F07422221222161267
:10567000522224F0800D06832234324242424242BA
:10568000F0601507F0721212131222122212221267
:105690001322121132249014077252521223121242
:1056A000221222122212221222F0700B0332421214
:1056B0001212121212A00D0452622222222222225F
:1056C0002212601207725252221212243522122222
:1056D000221222F0700C0332121212121212121243
:1056E000A01C0BF0F03213122313121222221222EA
:1056F00022122222122222122222F0F0401307F05C
:105700006212231212221222122212221222F0708C
:105710001107F0742222122212221222122224F0E5
:10572000801407F062122312122212221222131284
:1057300012122252C01407F07212121312221222F5
:105740001222121322125252800B05F412323232FC
:105750003232F0300E07F0742222135453122224F6
:10576000F0800D05713224223232323242F01013B1
:1057700007F0622212221222122212221213221285
:10578000F0701108F09232123222123212321243A9
:1057900053F0C0190AF0F22122121312121312123E
:1057A000111112231333133232F0F0201007F0627C
:1057B00022122224424422221222F0701208F09275
:1057C00032123222123212321243535243D00C069A
:1057D000F035423232423245F0400E0683224242D8
:1057E00042325242424253700E02211111111111E4
:1057F0001111111111300E066352424242523242CF
:10580000424223900B07F0F062211122F0F0E000F9
:10581000010C0D0A0000050010001B002F004300C2
:105820005F0074007B0089009700A100AC00B40009
:10583000BA00C000CC00E000EE00FC000B011B0130
:105840002A013C0149015C016E0175017E018A015A
:1058500092019E01AB01CE01E101F40103021702A6
:105860002402310243025802640273028702940246
:10587000B202C902DD02EE02040318032703340357
:1058800049035E037E039103A203AF03BD03C90373
:10589000D703E303E903F0030004140422043604ED
:1058A0004504520467047B0486049304A504B104F0
:1058B000CD04E004F10405051905240532053F0572
:1058C000520563057C058C059E05AA05B805C6052D
:1058D000D40500003052000000000000000000006D
:1058E00000000000000000000000000000000000B8
:1058F00000093D0000803E0000004B00404B4C0082
:1059000000204E00808D5B0000C05D0000807000B4
:1059100000127A0000007D0080969800001BB700FE
:105920000080BB00C0E8CE00647ADA000024F400F6
:105930000000FA0080A81201002D310100366E012E
:1059400040787D0105050006200902211111111181
:1059500031500703321212F0400D06D111252111EA
:105960002521113111E00B0681433152616114414F
:105970009015088321211111311111364111113176
:1059800011112122F0301106723121211132211121
:10599000111111212311D00602211111D00B034145
:1059A00011212121212121310C03313121212121FA
:1059B00021211120080451231321F0700906F05110
:1059C00051353151F00703F0712111200403F2D059
:1059D0000402E1500B058131414131413141900DCB
:1059E00006D3213111311131113123E00A05B221E1
:1059F0001141414124B00905A44141313134B0097C
:105A000005A44122514113C00B06E242311121216C
:105A10002541E00905A41143514113C00B05B31101
:105A2000441121112122C00905A44131413141D045
:105A30000C05A41121222112112114B00B05B22151
:105A4000211121144113C005026171500703D18156
:105A50002111200905D122215251F0100705F054DF
:105A600064F0100A06F03262613222F01009044339
:105A70003131222171A01208F0343141111311117A
:105A800011111111142184B00C06E242311131219F
:105A9000241131D00C05A41121132121112113C08F
:105AA0000B06D322211151522123E00D06C42122DD
:105AB00011311131112214E00904831133113133F2
:105AC000900904831133113131B00C06D412211125
:105AD0005122122124D00E06C1311131151131117C
